:03000000020C2FC0
:0C0C2F00787FE4F6D8FD758186020C7613
:100CBB008848000000000000000088000A0A0A0AA9
:100CCB000A0A0A0A017100017D2801781E026A01D5
:100CDB005401790A204226FF0B5C00000001000042
:100CEB000000FF077C0000000A00000000FF0482E8
:100CFB000000001400000000FF00030000012C00A6
:100D0B00000000FF11EF0000009600000000FF0F35
:090D1B001900000078000000003E
:10077C00120D41786EEFF6786CE66FFE5F7869F6D5
:10078C00EFF45E787CF6786EE6786CF63000030257
:10079C00096EE6B45930D202C37875E694D018E6E7
:1007AC0094074022E47824F6786DF6787D762878E4
:1007BC0078761E7823F67825F6786A7601087654D2
:1007CC007879760AC2027869E624FB603824FD60E9
:1007DC005C1470030208DE2405600302096E7824A1
:1007EC0006E675F00384A6F0E6FFB40102C203EF3F
:1007FC00B40206E4786DF6D206EF600302096E7857
:10080C0023F6C206227824E6146010146014240225
:10081C00600302096EA203B3920322786DE66401B1
:10082C00F622782306E675F00384A6F0227824E6F7
:10083C0014602314604A2402600302096ED200E49F
:10084C007876F608F6C205787EF674FF7881F6089D
:10085C00F6E4787FF622786DE67013787DE6FFB4C7
:10086C005A057F0A020905EF240AFF020905787868
:10087C00E6FFB450057F00020917EF04FF020917C9
:10088C007823E6FF70187825E6FEB45A047DA6801E
:10089C0006EEFDED2405FDAE057825A60622EFB487
:1008AC00011E786AE6FE08E6FFBE270ABF06077E31
:1008BC00007F0A020954EF240AFFE43EFE020954A9
:1008CC007879E6FFB414057F0102096AEF04FF0290
:1008DC00096A7824E614600D146035240260030262
:1008EC00096ED20422786DE67014787DE6FFB40AA6
:1008FC00047F5A8004EF24F6FF787DA607227878CF
:10090C00E6FF70047F508003EF14FF7878A607226F
:10091C007823E6FF70147825E6FEB4A6047E5A8090
:10092C0004EE24FBFE7825A60622EFB40122786A99
:10093C00E6FE08E6FF640A4E70067E277F068008F6
:10094C00EF24F6FFEE34FFFE786AA60608A607220F
:10095C007879E6FFB401047F148003EF14FF7879F3
:03096C00A60722B9
:100482007824E61470030205B714700302060824E8
:1004920002600302077B787AE6FA08E6FB7C007DBD
:1004A20064FFAE021203E37C007D0A1203E37800CC
:1004B200EDF27C007D0AAF03AE021203E37C007D05
:1004C2000A1203E3ED242C7801F2787AE6FE08E6BC
:1004D200FF7C007D0A1203E37802EDF208740BF24E
:1004E200200376786FE6FE08E6FF7C037DE81203C0
:1004F200E37C007D0A1203E3ED4C70047F0A800264
:10050200AF057804EFF2786FE6FE08E6FF7C007D27
:10051200641203E37C007D0A1203E3ED4C700A7857
:1005220004E2B40A047F0A8002AF057805EFF2788C
:100532006FE6FE08E6FF7C007D0A1203E37C007D85
:100542000A1203E3ED4C700A7805E2B40A047F0A4A
:100552008002AF057806EF8056786FE6FE08E6FF68
:100562007C037DE81203E37C007D0A1203E3ED4C79
:1005720070047F0A8002AF057804EFF2786FE6FA22
:1005820008E6FB7C007D64FFAE021203E37C007D83
:100592000A1203E3ED242C7805F27C007D0AAF03F6
:1005A200AE021203E37C007D0A1203E37806EDF249
:1005B200786F0207477800740CF2786DE6FF0478D2
:1005C20001F208740AF208F208F208F2EF701378E6
:1005D2007DE6FF75F00A8475F00A847806E5F0027C
:1005E20006BC7878E675F00A8475F00A84AFF0EFFD
:1005F20070047F0A80007806EFF27878E675F00AD8
:100602008478070207787800740DF27823E6FF04F5
:100612007801F208740AF208F2EF60030206C608D3
:10062200740AF27825E6FFC3648094804054EF7523
:10063200F06412037BFF75F00A12037BAFF0EF70D8
:10064200067E0A7F0A80007805EFF27825E6FF75BC
:10065200F00A12037BFF75F00A12037BAFF0EF7012
:100662000C7805E2B40A067E0A7F0A80007806EF5B
:10067200F27825E6FF75F00A12037BAFF07807EFF8
:10068200F2227825E6FFD3648094764010EFF404DA
:10069200FF7868F67805740AF20804801D7825E66A
:1006A200F4047868F67805740BF27868E6FF75F062
:1006B2000A8475F00A847806E5F0F2EF75F00A8490
:1006C200080207787823E664016003020758786A13
:1006D200E6FE08E6FF7C037DE81203E37C007D0A68
:1006E2001203E3ED4C70047F0A8002AF057804EF39
:1006F200F2786AE6FE08E6FF7C007D641203E37C82
:10070200007D0A1203E3ED4C700A7804E2B40A0495
:100712007F0A8002AF057805EFF2786AE6FE08E606
:10072200FF7C007D0A1203E37C007D0A1203E3EDE5
:100732004C700A7805E2B40A047F0A8002AF057899
:1007420006EFF2786AE6FE08E6FF7C007D0A1203F5
:10075200E37807EDF2227804740AF208F27879E677
:10076200FF75F00A8475F00A84E5F0242C7806F20D
:0A077200EF75F00A8408E5F0F222AA
:100B5C007824E614604F14606424027078C37870B3
:100B6C00E694FF18E694004014E4F5087448250850
:100B7C00F87401F20508E508B408F18058E4F508AA
:100B8C00786FE6FE08E6A808088005CEC313CE13DE
:100B9C00D8F95401FF74482508F8EFF20508E50868
:100BAC00B408DD8030E4F50874482508F8E4F20553
:100BBC0008E508B407F2784F7401F2801875080143
:100BCC0074482508F8E4F20508E508B408F2A20117
:100BDC00E4337848F27BFE7A007948120DC6787DB2
:100BEC00E6FF7E0024FBFDEE34FFFC786FE6FA088E
:100BFC00E6FBC39DEA9C4025EF2405FFEE33FED3B4
:100C0C00EB9FEA9E50177878E675F00AA4FFD3782C
:100C1C007BE69F18E695F05004D2078002C20712BB
:020C2C000FF5C2
:010C2E0022A3
:10000300120FBAE4FBFA792078411201161202FAB0
:08001300787AA60608A6072270
:0111EF0022DD
:100F1900786AE6FE08E6FF120EBD7825E6FD3395F0
:100F2900E0FCEF2D7870F6EE3C18F6300033787E51
:100F3900E6FFC39420502A7970E778826670041915
:100F4900E71866601C786FE6FC08E6FDEF25E024EB
:100F590008F8ECF208EDF27881A60408A605787E77
:020F690006225E
:10117E00538EBF53890F758B18758DFCC28FD28E0F
:05118E00D2ABD2AF223C
:03001B0002096F68
:10096F00C0E0C0F0C083C082C0D075D000C000C04E
:10097F0001C002C003C004C005C006C007788312BF
:10098F000457EF2401FFE43EFEE43DFDE43CFC7818
:10099F0083120470787106E65407F6E6FF2400F818
:1009AF00E2FED394144008EE24D4FDD208800B78D5
:1009BF0071E6FF2400F8E2FDC208120F6B30001839
:1009CF0078760806E618700106FF8606BE1710BF78
:1009DF00700DC200D2058007787676000876003059
:1009EF00021C78740806E6187001068606C394D0B8
:1009FF00EE94074010787476070876D180077874E4
:100A0F007600087600300610782206E6B4640FA24E
:100A1F0001B392017600800678227600C20120048D
:100A2F0003020B3A78720806E61870010686066410
:100A3F00E87003EE64036003020B417872F608F668
:100A4F00200503020B36787EE6D394005003020B89
:100A5F003608E625E02409F9D3E3940A19E3940054
:100A6F0050157879E6FCE41202C6E4FBFA79207897
:100A7F004112021F020B18787FE625E02409F9C303
:100A8F00E3945A19E3940040057FFF020B25787910
:100A9F00E6FCE41202C6E4FBFA7920784112021F49
:100AAF00A804A905AA06AB07E4FFFE7DA07C4012AF
:100ABF000021C004C005C006C007787FE625E024EA
:100ACF0009F8E224F6FD18E234FFFCE41202C1D06B
:100ADF0003D002D001D000120116E4FBFA79A078FE
:100AEF004212021FC004C005C006C0077879E6FC99
:100AFF00E41202C6E4FBFA7920784112021FD003F8
:100B0F00D002D001D000120025E4FBFA794C7842D4
:100B1F001201161202FA1211A8787EE614FF08E6E7
:100B2F00C39F500E06800BC20480077872760008B0
:100B3F007600D007D006D005D004D003D002D00164
:0D0B4F00D000D0D0D082D083D0F0D0E032E2
:0511EA0078807606226A
:0B0E4800E4F508E508C37880965069C7
:100E530078831204578F0C8E0B8D0A8C09E5087565
:100E6300F00BA4242DF8120457E50875F00BA42405
:100E730029F8120463EB2FFFEA3EFEE93DFDE83C4F
:100E8300FCAB0CAA0BA90AA809C31204464026AF5F
:100E93000CAE0BAD0AAC09E50875F00BA4242DF8D4
:100EA300120470E50875F00BA42426F808E6FA0886
:050EB300E6F912047CC9
:040EB8000508808F1A
:010EBC002213
:0E11CA0012104D1211EA12117E120E4880FB17
:100D4100E4FFD2C4D2C2D2B520B00122C2C4D2C201
:100D5100D2B520B0027F0720B1027F0620B2027F08
:100D61000520B3027F04D2C4D2C2D2B520B0037F22
:100D71000022D2C4C2C2D2B520B0027F0B20B10280
:100D81007F0A20B20620B3037F592220B2027F09D5
:100D910020B3027F08D2C4D2C2D2B520B0037F00F3
:100DA10022D2C4D2C2C2B520B0027F0F20B1027FCD
:100DB1000E20B2027F0D20B3027F0CD2C4D2C2D268
:040DC100B543B0EF97
:010DC500220B
:0C0D2400010D00010FFF010E000110FF87
:100DC600E4780DF69000011203B625E0FF12039DAC
:100DD6004FFF9000021203B625E025E04FFF90007A
:100DE600031203B633333354F84FFF900004120353
:100DF600B6C454F04FFF9000051203B6C43354E056
:100E06004FFF9000061203B6C4333354C04FFF9011
:100E160000071203B6C433333354804FFF780DF600
:100E2600780FE66F601B780DE6FFF4F580E5A054B9
:100E36001FFE4306808EA0E5A0541FF5A0780FA6DE
:010E460007A4
:010E47002288
:100FF500780EE63007054410F6800354EFF6780EB8
:10100500E6FF78106660148F80E5A0541FFE430646
:0B101500A08EA0E5A0541FF5A0A607C8
:0110200022AD
:100D30008E50C0F9A4B0999282F88090FFBF8C8E3B
:100F6B007580FFE5A0541FFE4306E08EA0E5A0545C
:100F7B001FFEF5A0A8077401088002C333D8FCF547
:100F8B0080E5A0541FFE4306C08EA0E5A0541FF5BC
:100F9B00A074502DF8E2F58030080353807FE5A054
:0E0FAB00541FFE4306E08EA0E5A0541FF5A0E3
:010FB9002215
:10104D007580FFE5A0541FFF4307808FA0E5A054D6
:10105D001FF5A0E4F580E5A0541FFF4307A08FA066
:06106D00E5A0541FF5A0F0
:01107300225A
:041118007F057E00D1
:10111C00EF1FAA0670011E4A600BE4FDEDC3940C90
:05112C0050EE0D80F7FC
:01113100229B
:0210C100A9077D
:1010C300E4FBC294E9139294121118D294E9C31366
:0C10D300F90BBB08ED7F057E0002111C2C
:10113200E4FBC294ECC313FCD294309403430480C6
:091142001211180BBB08EBAF04FD
:01114B002281
:10107400C207D2947F0C7E0012111CC2947F507E52
:101084000012111CD2947F0A7E0012111CA29492A9
:0610940007121118A2076B
:01109A002233
:100FBA001210747FCC1210C17F441210C17FC87EF8
:100FCA000012111C1210747FCC1210C17FBE1210B5
:100FDA00C1121132A907121132EFAD01FCEC120253
:0B0FEA00C1E4FBFA7980783D0201169B
:04114C00D2A07F05A9
:10115000000000000000000000000000000000AEE1
:06116000071FEE70EB22F8
:0F11BB00D2A112114CC2A17F05121150C2A02265
:0C11D800C2A112114CD2A17F05021150DF
:02102100AD0719
:10102300E4FCC2A07F05121150ED30E704D2A18089
:1010330002C2A17F05121150D2A0ED25E0FD7F056C
:091043001211500CBC08DBC2A024
:01104C002281
:1010DF00E4FC12114CED25E0FD30A103430501C2E4
:0C10EF00A07F051211500CBC08E8AF05F2
:0110FB0022D2
:0A10FC00AB071211BB7F9012102108
:1011060012114CA2A1E433FDC2A07F05121150AF0B
:0111160005D3
:0111170022B5
:10116600C2A0EF24FF92A17F0512115012114CC2AA
:08117600A0D2A17F0502115077
:10109B001210FCAF031210211211061211BB7F911B
:1010AB001210211211061210DFAD077F011211660B
:0510BB001211D8AF0581
:0110C000220D
:1011A8001210FC7F41121021121106AF03121021F8
:0311B8000211061B
:0511E400007F03DFFEA7
:0111E90022E3
:10119300C2AFE4FED2901211E4C2901211E40EBE6B
:0411A30008F2D2AFCD
:0111A7002225
:040EBD00AD07AC06CB
:100EC100E4F5D9F5E9F5F9121193D2DE3091033049
:100ED100DFFAC2DE20DF3BAFF9EFABE9F508EBF556
:100EE10009AE04AF05E41202C17B007A40799C7817
:100EF1004612021FC004C005C006C007AC08AD09F8
:100F0100E41202C1D003D002D001D00012011602B6
:070F110002FAC2DFE4FEFF5B
:010F180022B6
:10001E00020366E86480F8E933E83360110460F0A7
:10002E00ED33EC337009E8FCE9FDEAFEEBFF220448
:10003E0060DED3EB9FEA9EE99DE8C2E78CF0C2F743
:10004E0095F0400CE8CCF8E9CDF9EACEFAEBCFFB0F
:10005E0012033185D0F05804700320D5B3E8047034
:10006E00075002B2D502037092D5EC0460F7E4CCCF
:10007E00C0E0C398F8603B94186008400DD0E0FBD8
:10008E00020348E4FBFAC9FC8028E830E406E4C920
:10009E00FBE4CAFCE830E305E4C9CACBFCE854072C
:1000AE006010F8C3E913F9EA13FAEB13FBEC13FC37
:1000BE00D8F130F52FC3E49CFCEF9BFFEE9AFEEDDA
:1000CE0099FDD0E0FBEF4E4D4C701222DB03020384
:1000DE006DEC2CFCEF33FFEE33FEED33FDED30E730
:1000EE00EB020348EF2BFFEE3AFEED39FDD0E0FBBD
:1000FE0050130BBB0003020370ED13FDEE13FEEF66
:08010E0013FFEC13FC0203488F
:10011600EC4D6011E8497017ED33EC3304600DE4E3
:10012600FCFFFEFD22E933E8330470F80203661291
:10013600033158046009E4CC248150062850090292
:10014600037028400302036DC0E0EB4A7044B98097
:1001560006D0E0FB02035CEF4E701CBD8008EBFF8F
:10016600EAFEE9FD80EBE98DF0A4FEE5F00201FF71
:10017600E9CDF9EAFEEBFFEF89F0A4FCE5F0CE89C4
:10018600F0A42EFFE435F0CD89F0A42DFEE435F081
:100196008067EF4E7005BD80D780C3EF8BF0A4ACAF
:1001A600F0EE8BF0A42CFCE435F0F8EF8AF0A42CEA
:1001B600E5F038FCE433CB8DF0A42CFCE5F03BF8FD
:1001C600EE8AF0A42CFCE5F038F8E433CF89F0A4ED
:1001D6002CFCE5F038CF3400CE89F0A42FFFE5F0F3
:1001E6003EFEE433C98DF0A42EFEE5F039CD8AF04B
:1001F600A42FFFE5F03EFEE43DFD33D0E0FB5007C3
:100206000BBB000F020370EC2CFCEF33FFEE33FE4A
:06021600ED33FD02034878
:10021C00020370EC5D046005E85904700302036688
:10022C00120331580460F6EC4860F2EC7004FDFEE9
:10023C00FF22C860DB2481C85009C39860025006B5
:10024C0002036D9850CAF582E9294B4A7005AB82BE
:10025C0002035C75F0007C1A7880C3EF9BEE9AED7C
:10026C0099400DC3EF9BFFEE9AFEED99FDE842F02D
:10027C00DC23ACF0D0E0FFD0E0FED0E0FDAB822080
:10028C00E7101BEB60BAEC2CFCEF33FFEE33FEED0A
:10029C0033FD020348E803F830E705C0F075F000C1
:1002AC00EF2FFFEE33FEED33FD40B830E7C280AAEE
:1002BC0075F020800E75F010800575F0087D007EBD
:1002CC00007F003392D530D503120438EC33401044
:1002DC00EF33FFEE33FEED33FDEC33FCD5F0ED22C6
:0E02EC00E5F0247EA2D513CC92E7CDCEFF2202
:1002FA00EDD2E7CD33EC3392D524814006E4FFFEFC
:10030A00FDFC22FCE4CFCECDCC24E0501174FF805A
:10031A00EDC3CC13CCCD13CDCE13CECF13CF0470F7
:07032A00F030D5DE020438BB
:10033100E9D2E7C933E833F892D5EDD2E7CD33EC12
:0703410033FC5002B2D5228B
:10034800EC30E7100FBF000C0EBE00080DBD000416
:100358000BEB6014A2D5EB13FCED92E7FD2274FFC2
:10036800FCFDFEFF22E480F8A2D574FF13FC7D801B
:03037800E480EF2F
:100C3B000211CAE493A3F8E493A34003F68001F2F4
:100C4B0008DFF48029E493A3F85407240CC8C333BA
:100C5B00C4540F4420C8834004F456800146F6DF89
:100C6B00E4800B0102040810204080900CBBE47E52
:100C7B00019360BCA3FF543F30E509541FFEE4937E
:100C8B00A360010ECF54C025E060A840B8E493A345
:100C9B00FAE493A3F8E493A3C8C582C8CAC583CA70
:100CAB00F0A3C8C582C8CAC583CADFE9DEE780BE28
:010D400000B2
:10037B00C2D530F707B2D563F0FF05F030E70CB20A
:10038B00D5F4048463F0FF05F080018430D502F4CA
:02039B0004223A
:10039D00BB010689828A83E0225002E722BBFE025E
:0903AD00E32289828A83E4932291
:1003B600BB010CE58229F582E5833AF583E02250FC
:1003C60006E92582F8E622BBFE06E92582F8E22246
:0D03D600E58229F582E5833AF583E4932260
:1003E300BC000BBE0029EF8DF084FFADF022E4CCFE
:1003F300F875F008EF2FFFEE33FEEC33FCEE9DECC7
:10040300984005FCEE9DFE0FD5F0E9E4CEFD22ED0C
:10041300F8F5F0EE8420D21CFEADF075F008EF2F56
:10042300FFED33FD4007985006D5F0F222C398FD47
:050433000FD5F0EA22E4
:0E043800C3E49FFFE49EFEE49DFDE49CFC22D5
:10044600EB9FF5F0EA9E42F0E99D42F0E89C45F00C
:010456002283
:0C045700E6FC08E6FD08E6FE08E6FF22D1
:0D046300E6FB08E6F908E6FA08E6CBF82209
:0C047000ECF608EDF608EEF608EFF622B8
:06047C008A838982E4730B
:00000001FF
