:03000000020BFBF5
:0C0BFB00787FE4F6D8FD758182020C4280
:100C87008848000000000000000088000A0A0A0ADD
:100C97000A0A0A0A017000017A2801751E02690111
:100CA7005401760A204225FF0A4600000001000091
:100CB7000000FF077C0000000A00000000FF04821C
:100CC7000000001400000000FF00030000012C00DA
:100CD700000000FF11850000009600000000FF10D3
:090CE70076000000780000000016
:10077C00120D0D786DEFF6786BE66FFE5F7868F60C
:10078C00EFF45E7879F6786DE6786BF6300003025C
:10079C000A45E6B45930D202C37872E694D018E612
:1007AC0094074022E47823F6786CF6787A762878E9
:1007BC0075761E7822F67824F678697601087654D8
:1007CC007876760AC2027868E624FB603824FD60ED
:1007DC005C1470030208F824056003020A457823B0
:1007EC0006E675F00384A6F0E6FFB40102C203EF3F
:1007FC00B40206E4786CF6D205EF6003020A457881
:10080C0022F6C205227823E6146010146014240228
:10081C006003020A45A203B3920322786CE66401DA
:10082C00F622782206E675F00384A6F0227823E6F9
:10083C0014603D14606424026003020A45D2002057
:10084C000003020A45786EE6FE08E6FF787E6670C5
:10085C000318E66E7003020A45787BE625E024084F
:10086C00F8EEF208EFF2787DA60608F6787B062201
:10087C00786CE67013787AE6FFB45A057F0A0209A1
:10088C00DCEF240AFF0209DC7875E6FFB450057F23
:10089C00000209EEEF04FF0209EE7822E6FF701861
:1008AC007824E6FEB45A047DA68006EEFDED240500
:1008BC00FDAE057824A60622EFB4011E7869E6FE8B
:1008CC0008E6FFBE270ABF06077E007F0A020A2B36
:1008DC00EF240AFFE43EFE020A2B7876E6FFB414FE
:1008EC00057F01020A41EF04FF020A417823E61456
:1008FC0070030209C81470030209F3240260030296
:10090C000A45200403020A45E4F508E508C3787B90
:10091C009640030209C3E50825E02409F9D3E394C2
:10092C000A19E39400500A7876E675F033A4FF8038
:10093C007EE50825E02409F9C3E3945A19E39400F1
:10094C0040047FFF8069E50825E02409F8E224F6DD
:10095C00FD18E234FFFCE41202C1C004C005C0065D
:10096C00C0077876E6FFC374059FFDE49400FC1283
:10097C0002C1D003D002D001D000120116E4FBFA60
:10098C0079A0784212021FC004C005C006C00778C7
:10099C0076E6FCE41202C6D003D002D001D00012DD
:1009AC000025E4FBFA794C78421201161202FA1275
:1009BC00113E0508020917E4787BF622786CE67084
:1009CC0014787AE6FFB40A047F5A8004EF24F6FF09
:1009DC00787AA607227875E6FF70047F508003EFC3
:1009EC0014FF7875A607227822E6FF70147824E6A7
:1009FC00FEB4A6047E5A8004EE24FBFE7824A606E0
:100A0C0022EFB401227869E6FE08E6FF640A4E7014
:100A1C00067E277F068008EF24F6FFEE34FFFE7873
:100A2C0069A60608A607227876E6FFB401047F14AF
:090A3C008003EF14FF7876A60791
:010A4500228E
:100482007823E61470030205B714700302060824E9
:1004920002600302077B7877E6FA08E6FB7C007DC0
:1004A20064FFAE021203E37C007D0A1203E37800CC
:1004B200EDF27C007D0AAF03AE021203E37C007D05
:1004C2000A1203E3ED242C7801F27877E6FE08E6BF
:1004D200FF7C007D0A1203E37802EDF208740BF24E
:1004E200200376786EE6FE08E6FF7C037DE81203C1
:1004F200E37C007D0A1203E3ED4C70047F0A800264
:10050200AF057804EFF2786EE6FE08E6FF7C007D28
:10051200641203E37C007D0A1203E3ED4C700A7857
:1005220004E2B40A047F0A8002AF057805EFF2788C
:100532006EE6FE08E6FF7C007D0A1203E37C007D86
:100542000A1203E3ED4C700A7805E2B40A047F0A4A
:100552008002AF057806EF8056786EE6FE08E6FF69
:100562007C037DE81203E37C007D0A1203E3ED4C79
:1005720070047F0A8002AF057804EFF2786EE6FA23
:1005820008E6FB7C007D64FFAE021203E37C007D83
:100592000A1203E3ED242C7805F27C007D0AAF03F6
:1005A200AE021203E37C007D0A1203E37806EDF249
:1005B200786E0207477800740CF2786CE6FF0478D4
:1005C20001F208740AF208F208F208F2EF701378E6
:1005D2007AE6FF75F00A8475F00A847806E5F0027F
:1005E20006BC7875E675F00A8475F00A84AFF0EF00
:1005F20070047F0A80007806EFF27875E675F00ADB
:100602008478070207787800740DF27822E6FF04F6
:100612007801F208740AF208F2EF60030206C608D3
:10062200740AF27824E6FFC3648094804054EF7524
:10063200F06412037BFF75F00A12037BAFF0EF70D8
:10064200067E0A7F0A80007805EFF27824E6FF75BD
:10065200F00A12037BFF75F00A12037BAFF0EF7012
:100662000C7805E2B40A067E0A7F0A80007806EF5B
:10067200F27824E6FF75F00A12037BAFF07807EFF9
:10068200F2227824E6FFD3648094764010EFF404DB
:10069200FF7867F67805740AF20804801D7824E66C
:1006A200F4047867F67805740BF27867E6FF75F064
:1006B2000A8475F00A847806E5F0F2EF75F00A8490
:1006C200080207787822E664016003020758786915
:1006D200E6FE08E6FF7C037DE81203E37C007D0A68
:1006E2001203E3ED4C70047F0A8002AF057804EF39
:1006F200F27869E6FE08E6FF7C007D641203E37C83
:10070200007D0A1203E3ED4C700A7804E2B40A0495
:100712007F0A8002AF057805EFF27869E6FE08E607
:10072200FF7C007D0A1203E37C007D0A1203E3EDE5
:100732004C700A7805E2B40A047F0A8002AF057899
:1007420006EFF27869E6FE08E6FF7C007D0A1203F6
:10075200E37807EDF2227804740AF208F27876E67A
:10076200FF75F00A8475F00A84E5F0242C7806F20D
:0A077200EF75F00A8408E5F0F222AA
:100A46007823E614605814606D24026003020AD409
:100A5600C3786FE694FF18E694004014E4F5087432
:100A6600482508F87401F20508E508B408F1805E27
:100A7600E4F508C374079508FF786EE6FE08E6A855
:100A860007088005CEC313CE13D8F95401FF744866
:100A96002508F8EFF20508E508B408D78030E4F534
:100AA6000874482508F8E4F20508E508B407F27862
:100AB6004F7401F2801875080174482508F8E4F2AD
:100AC6000508E508B408F2A201E4337848F27BFE93
:100AD6007A007948120D92787AE6FF7E0024FBFDB3
:100AE600EE34FFFC786EE6FA08E6FBC39DEA9C400E
:100AF60025EF2405FFEE33FED3EB9FEA9E501778D1
:100B060075E675F00AA4FFC37878E69F18E695F0B7
:0B0B16005004D2068002C206120F6FCE
:010B210022B1
:10000300120F34E4FBFA792078411201161202FA36
:080013007877A60608A6072273
:011185002247
:101076007869E6FE08E6FF120E897824E6FD3395C8
:0C108600E0FCEF2D786FF6EE3C18F6222F
:10111400538EBF53890F758B18758DFCC28FD28E79
:05112400D2ABD2AF22A6
:03001B00020B22B3
:100B2200C0E0C0F0C083C082C0D075D000C000C099
:100B320001C002C003C004C005C006C007787F120E
:100B42000457EF2401FFE43EFEE43DFDE43CFC7863
:100B52007F120470787006E65407F6E6FF2400F868
:100B6200E2FED394144008EE24D4FDD207800B7821
:100B720070E6FF2400F8E2FDC207120EE53000180D
:100B820078730806E618700106FF8606BE1710BFC6
:100B9200700DC200D20480077873760008760030A8
:100BA200021C78710806E6187001068606C394D006
:100BB200EE94074010787176070876D18007787135
:100BC2007600087600300510782106E6B4640FA29C
:100BD20001B392017600800678217600C201D00727
:100BE200D006D005D004D003D002D001D000D0D09E
:090BF200D082D083D0F0D0E032B3
:05118000787C760622D8
:0B0E1400E4F508E508C3787C965069FF
:100E1F00787F1204578F0C8E0B8D0A8C09E508759D
:100E2F00F00BA4242CF8120457E50875F00BA4243A
:100E3F0028F8120463EB2FFFEA3EFEE93DFDE83C84
:100E4F00FCAB0CAA0BA90AA809C31204464026AF93
:100E5F000CAE0BAD0AAC09E50875F00BA4242CF809
:100E6F00120470E50875F00BA42425F808E6FA08BB
:050E7F00E6F912047CFD
:040E84000508808F4E
:010E88002247
:0E116000120FC7121180121114120E1480FB10
:100D0D00E4FFD2C4D2C2D2B520B00122C2C4D2C235
:100D1D00D2B520B0027F0720B1027F0620B2027F3C
:100D2D000520B3027F04D2C4D2C2D2B520B0037F56
:100D3D000022D2C4C2C2D2B520B0027F0B20B102B4
:100D4D007F0A20B20620B3037F592220B2027F0909
:100D5D0020B3027F08D2C4D2C2D2B520B0037F0027
:100D6D0022D2C4D2C2C2B520B0027F0F20B1027F01
:100D7D000E20B2027F0D20B3027F0CD2C4D2C2D29C
:040D8D00B543B0EFCB
:010D9100223F
:0C0CF000010D00010FFF010E000110FFBC
:100D9200E4780DF69000011203B625E0FF12039DE0
:100DA2004FFF9000021203B625E025E04FFF9000AE
:100DB200031203B633333354F84FFF900004120387
:100DC200B6C454F04FFF9000051203B6C43354E08A
:100DD2004FFF9000061203B6C4333354C04FFF9046
:100DE20000071203B6C433333354804FFF780DF635
:100DF200780FE66F601B780DE6FFF4F580E5A054EE
:100E02001FFE4306808EA0E5A0541FF5A0780FA612
:010E120007D8
:010E130022BC
:100F6F00780EE63006054410F6800354EFF6780E3F
:100F7F00E6FF78106660148F80E5A0541FFE4306CD
:0B0F8F00A08EA0E5A0541FF5A0A6074F
:010F9A002234
:100CFC008E50C0F9A4B0999282F88090FFBF8C8E70
:100EE5007580FFE5A0541FFE4306E08EA0E5A054E3
:100EF5001FFEF5A0A8077401088002C333D8FCF5CE
:100F050080E5A0541FFE4306C08EA0E5A0541FF542
:100F1500A074502DF8E2F58030070353807FE5A0DB
:0E0F2500541FFE4306E08EA0E5A0541FF5A069
:010F3300229B
:100FC7007580FFE5A0541FFF4307808FA0E5A0545D
:100FD7001FF5A0E4F580E5A0541FFF4307A08FA0ED
:060FE700E5A0541FF5A077
:010FED0022E1
:0410AE007F057E003C
:1010B200EF1FAA0670011E4A600BE4FDEDC3940CFB
:0510C20050EE0D80F767
:0110C7002206
:02103B00A90703
:10103D00E4FBC294E91392941210AED294E9C31357
:0C104D00F90BBB08ED7F057E000210B21D
:1010C800E4FBC294ECC313FCD29430940343048031
:0910D8001210AE0BBB08EBAF04D3
:0110E10022EC
:100FEE00C206D2947F0C7E001210B2C2947F507E45
:100FFE00001210B2D2947F0A7E001210B2A2949206
:06100E00061210AEA2065E
:0110140022B9
:100F3400120FEE7FCC12103B7F4412103B7FC87E11
:100F4400001210B2120FEE7FCC12103B7FBE1210B3
:100F54003B1210C8A9071210C8EFAD01FCEC120235
:0B0F6400C1E4FBFA7980783D02011621
:0410E200D2A07F0514
:1010E600000000000000000000000000000000AE4C
:0610F600071FEE70EB2263
:0F115100D2A11210E2C2A17F051210E6C2A022A5
:0C116E00C2A11210E2D2A17F050210E61F
:020F9B00AD07A0
:100F9D00E4FCC2A07F051210E6ED30E704D2A1807B
:100FAD0002C2A17F051210E6D2A0ED25E0FD7F055E
:090FBD001210E60CBC08DBC2A016
:010FC6002208
:10105900E4FC1210E2ED25E0FD30A103430501C2D5
:0C106900A07F051210E60CBC08E8AF05E3
:011075002258
:0A109200AB071211517F90120F9B63
:10109C001210E2A2A1E433FDC2A07F051210E6AF4C
:0110AC00053E
:0110AD002220
:1010FC00C2A0EF24FF92A17F051210E61210E2C2EB
:08110C00A0D2A17F050210E64C
:10101500121092AF03120F9B12109C1211517F9167
:10102500120F9B12109C121059AD077F011210FC74
:0510350012116EAF0571
:01103A002293
:10113E001210927F41120F9B12109CAF03120F9B45
:03114E0002109CF0
:05117A00007F03DFFE11
:01117F00224D
:10112900C2AFE4FED29012117AC29012117A0EBEA9
:0411390008F2D2AF37
:01113D00228F
:040E8900AD07AC06FF
:100E8D00E4F5D9F5E9F5F9121129D2DE30910330E7
:100E9D00DFFAC2DE20DF3BAFF9EFABE9F508EBF58A
:100EAD0009AE04AF05E41202C17B007A40799C784B
:100EBD004612021FC004C005C006C007AC08AD092C
:100ECD00E41202C1D003D002D001D00012011602EB
:070EDD0002FAC2DFE4FEFF90
:010EE40022EB
:10001E00020366E86480F8E933E83360110460F0A7
:10002E00ED33EC337009E8FCE9FDEAFEEBFF220448
:10003E0060DED3EB9FEA9EE99DE8C2E78CF0C2F743
:10004E0095F0400CE8CCF8E9CDF9EACEFAEBCFFB0F
:10005E0012033185D0F05804700320D5B3E8047034
:10006E00075002B2D502037092D5EC0460F7E4CCCF
:10007E00C0E0C398F8603B94186008400DD0E0FBD8
:10008E00020348E4FBFAC9FC8028E830E406E4C920
:10009E00FBE4CAFCE830E305E4C9CACBFCE854072C
:1000AE006010F8C3E913F9EA13FAEB13FBEC13FC37
:1000BE00D8F130F52FC3E49CFCEF9BFFEE9AFEEDDA
:1000CE0099FDD0E0FBEF4E4D4C701222DB03020384
:1000DE006DEC2CFCEF33FFEE33FEED33FDED30E730
:1000EE00EB020348EF2BFFEE3AFEED39FDD0E0FBBD
:1000FE0050130BBB0003020370ED13FDEE13FEEF66
:08010E0013FFEC13FC0203488F
:10011600EC4D6011E8497017ED33EC3304600DE4E3
:10012600FCFFFEFD22E933E8330470F80203661291
:10013600033158046009E4CC248150062850090292
:10014600037028400302036DC0E0EB4A7044B98097
:1001560006D0E0FB02035CEF4E701CBD8008EBFF8F
:10016600EAFEE9FD80EBE98DF0A4FEE5F00201FF71
:10017600E9CDF9EAFEEBFFEF89F0A4FCE5F0CE89C4
:10018600F0A42EFFE435F0CD89F0A42DFEE435F081
:100196008067EF4E7005BD80D780C3EF8BF0A4ACAF
:1001A600F0EE8BF0A42CFCE435F0F8EF8AF0A42CEA
:1001B600E5F038FCE433CB8DF0A42CFCE5F03BF8FD
:1001C600EE8AF0A42CFCE5F038F8E433CF89F0A4ED
:1001D6002CFCE5F038CF3400CE89F0A42FFFE5F0F3
:1001E6003EFEE433C98DF0A42EFEE5F039CD8AF04B
:1001F600A42FFFE5F03EFEE43DFD33D0E0FB5007C3
:100206000BBB000F020370EC2CFCEF33FFEE33FE4A
:06021600ED33FD02034878
:10021C00020370EC5D046005E85904700302036688
:10022C00120331580460F6EC4860F2EC7004FDFEE9
:10023C00FF22C860DB2481C85009C39860025006B5
:10024C0002036D9850CAF582E9294B4A7005AB82BE
:10025C0002035C75F0007C1A7880C3EF9BEE9AED7C
:10026C0099400DC3EF9BFFEE9AFEED99FDE842F02D
:10027C00DC23ACF0D0E0FFD0E0FED0E0FDAB822080
:10028C00E7101BEB60BAEC2CFCEF33FFEE33FEED0A
:10029C0033FD020348E803F830E705C0F075F000C1
:1002AC00EF2FFFEE33FEED33FD40B830E7C280AAEE
:1002BC0075F020800E75F010800575F0087D007EBD
:1002CC00007F003392D530D503120438EC33401044
:1002DC00EF33FFEE33FEED33FDEC33FCD5F0ED22C6
:0E02EC00E5F0247EA2D513CC92E7CDCEFF2202
:1002FA00EDD2E7CD33EC3392D524814006E4FFFEFC
:10030A00FDFC22FCE4CFCECDCC24E0501174FF805A
:10031A00EDC3CC13CCCD13CDCE13CECF13CF0470F7
:07032A00F030D5DE020438BB
:10033100E9D2E7C933E833F892D5EDD2E7CD33EC12
:0703410033FC5002B2D5228B
:10034800EC30E7100FBF000C0EBE00080DBD000416
:100358000BEB6014A2D5EB13FCED92E7FD2274FFC2
:10036800FCFDFEFF22E480F8A2D574FF13FC7D801B
:03037800E480EF2F
:100C0700021160E493A3F8E493A34003F68001F292
:100C170008DFF48029E493A3F85407240CC8C333EE
:100C2700C4540F4420C8834004F456800146F6DFBD
:100C3700E4800B0102040810204080900C87E47EBA
:100C4700019360BCA3FF543F30E509541FFEE493B2
:100C5700A360010ECF54C025E060A840B8E493A379
:100C6700FAE493A3F8E493A3C8C582C8CAC583CAA4
:100C7700F0A3C8C582C8CAC583CADFE9DEE780BE5C
:010D0C0000E6
:10037B00C2D530F707B2D563F0FF05F030E70CB20A
:10038B00D5F4048463F0FF05F080018430D502F4CA
:02039B0004223A
:10039D00BB010689828A83E0225002E722BBFE025E
:0903AD00E32289828A83E4932291
:1003B600BB010CE58229F582E5833AF583E02250FC
:1003C60006E92582F8E622BBFE06E92582F8E22246
:0D03D600E58229F582E5833AF583E4932260
:1003E300BC000BBE0029EF8DF084FFADF022E4CCFE
:1003F300F875F008EF2FFFEE33FEEC33FCEE9DECC7
:10040300984005FCEE9DFE0FD5F0E9E4CEFD22ED0C
:10041300F8F5F0EE8420D21CFEADF075F008EF2F56
:10042300FFED33FD4007985006D5F0F222C398FD47
:050433000FD5F0EA22E4
:0E043800C3E49FFFE49EFEE49DFDE49CFC22D5
:10044600EB9FF5F0EA9E42F0E99D42F0E89C45F00C
:010456002283
:0C045700E6FC08E6FD08E6FE08E6FF22D1
:0D046300E6FB08E6F908E6FA08E6CBF82209
:0C047000ECF608EDF608EEF608EFF622B8
:06047C008A838982E4730B
:00000001FF
